{
  "contractName": "MessageContract",
  "abi": [
    {
      "constant": true,
      "inputs": [],
      "name": "message",
      "outputs": [
        {
          "internalType": "uint256",
          "name": "",
          "type": "uint256"
        }
      ],
      "payable": false,
      "stateMutability": "view",
      "type": "function"
    },
    {
      "constant": true,
      "inputs": [],
      "name": "owner",
      "outputs": [
        {
          "internalType": "address",
          "name": "",
          "type": "address"
        }
      ],
      "payable": false,
      "stateMutability": "view",
      "type": "function"
    },
    {
      "constant": true,
      "inputs": [],
      "name": "print",
      "outputs": [
        {
          "internalType": "uint256",
          "name": "",
          "type": "uint256"
        }
      ],
      "payable": false,
      "stateMutability": "view",
      "type": "function"
    },
    {
      "constant": false,
      "inputs": [
        {
          "internalType": "uint256",
          "name": "_message",
          "type": "uint256"
        }
      ],
      "name": "steMessage",
      "outputs": [],
      "payable": false,
      "stateMutability": "nonpayable",
      "type": "function"
    }
  ],
  "bytecode": "0x6080604052336000806101000a81548173ffffffffffffffffffffffffffffffffffffffff021916908373ffffffffffffffffffffffffffffffffffffffff160217905550603760015534801561005557600080fd5b506101d2806100656000396000f3fe608060405234801561001057600080fd5b506004361061004c5760003560e01c806313bdfacd146100515780638da5cb5b1461006f578063a3b90eba146100b9578063e21f37ce146100e7575b600080fd5b610059610105565b6040518082815260200191505060405180910390f35b61007761010f565b604051808273ffffffffffffffffffffffffffffffffffffffff1673ffffffffffffffffffffffffffffffffffffffff16815260200191505060405180910390f35b6100e5600480360360208110156100cf57600080fd5b8101908080359060200190929190505050610134565b005b6100ef610197565b6040518082815260200191505060405180910390f35b6000600154905090565b6000809054906101000a900473ffffffffffffffffffffffffffffffffffffffff1681565b6000809054906101000a900473ffffffffffffffffffffffffffffffffffffffff1673ffffffffffffffffffffffffffffffffffffffff163373ffffffffffffffffffffffffffffffffffffffff161461018d57600080fd5b8060018190555050565b6001548156fea265627a7a723158209116baea562657bebd58796b1af7901451e8f69dea026b0e3b951bf37ccc144e64736f6c63430005100032",
  "source": "pragma solidity ^0.5.0;\r\n\r\ncontract MessageContract{\r\n    address public owner = msg.sender;\r\n    uint  public message = 55;\r\n\r\n    modifier ownerOnly(){\r\n        require(msg.sender == owner);\r\n        _;\r\n    }\r\n\r\n    function print() public view returns (uint){\r\n        return (message);\r\n    }\r\n\r\n    function steMessage(uint _message) public ownerOnly(){\r\n        message = _message;\r\n    }\r\n}",
  "sourcePath": "C:\\Users\\svenm\\Desktop\\Solidity\\Message\\contracts\\MessageContract.sol",
  "compiler": {
    "name": "solc",
    "version": "0.5.16+commit.9c3226ce.Emscripten.clang"
  },
  "schemaVersion": "3.1.0",
  "updatedAt": "2020-04-17T17:16:38.780Z",
  "networkType": "ethereum",
  "devdoc": {
    "methods": {}
  },
  "userdoc": {
    "methods": {}
  }
}